:10000000F0C60020395E0200E7180400255E0200F9
:10001000255E0200255E0200255E02000000000051
:10002000000000000000000000000000F95F020076
:100030007105000000000000A15F0200255E0200C3
:10004000396202006F9B04003962020039620200CB
:10005000396202003962020039620200396202002C
:100060003F9B04003962020039620200599B040080
:10007000396202003962020039620200396202000C
:1000800039620200396202003962020039620200FC
:1000900039620200396202003962020039620200EC
:1000A00039620200396202003962020039620200DC
:1000B00039620200396202003962020039620200CC
:1000C00039620200396202003962020039620200BC
:0C00D0003962020039620200396202004D
:1000DC00FFFFFFFFFFFFFFFFFFFFFFFFFFFFFFFF24
:1000EC00FFFFFFFFFFFFFFFFFFFFFFFFFFFFFFFF14
:0400FC00FFFFFFFF04
:1001000090F800F06DE9024520F007016FF0000C57
:1001100010F0070491F820F040F049804FF00004FF
:100120006FF00700D1E9002391F840F000F10800DA
:1001300082FA4CF2A4FA8CF283FA4CF3A2FA8CF312
:100140004BBBD1E9022382FA4CF200F10800A4FA79
:100150008CF283FA4CF3A2FA8CF3E3B9D1E90423CD
:1001600082FA4CF200F10800A4FA8CF283FA4CF304
:10017000A2FA8CF37BB9D1E9062301F1200182FABE
:100180004CF200F10800A4FA8CF283FA4CF3A2FAC4
:100190008CF3002BC6D0002A04BF04301A4612BAD2
:1001A000B2FA82F2FDE8024500EBD2007047D1E9D5
:1001B000002304F00305C4F100004FEAC50514F064
:1001C000040F91F840F00CFA05F562EA05021CBF35
:1001D00063EA050362464FF00004A9E7000000004F
:1001E000A2EB0300704700BF02780B78012A28BFFA
:1001F0009A42F5D16DE9044540EA0104CDE9026770
:100200006FF0000C4FEA447212B380EA010414F05C
:10021000070F6AD100F0070420F0070004F003057F
:1002200021F007014FEAC505F0E8042314F0040F9C
:10023000F1E804670CFA05F462EA040266EA0406CF
:100240000AD063EA0403624667EA0407664603E0ED
:10025000F0E80423F1E8046782FA4CF582EA060428
:10026000A4FA8CF46CBB83FA4CF583EA0705A5FA73
:100270008CF595B950E9022351E9026782FA4CF5F1
:1002800082EA0604A4FA8CF483FA4CF583EA0705A3
:10029000A5FA8CF52543DBD09CB92DBAB5FA85F4C7
:1002A00024F0070427FA04F1DDE9026723FA04F3D6
:1002B00003F0FF0001F0FF01FDE80445A0EB0100A1
:1002C000704724BAB4FA84F424F0070426FA04F13F
:1002D000DDE9026722FA04F202F0FF0001F0FF01FB
:1002E000FDE80445A0EB0100704714F0030F3CD17A
:1002F00010F0030428D150F8082B51F8083B82FA7B
:100300004CF582EA0305A5FA8CF55DB950F8042C8A
:1003100051F8043C82FA4CF582EA0305A5FA8CF503
:10032000002DE8D02DBAB5FA85F424F0070423FA9D
:1003300004F122FA04F202F0FF0001F0FF01FDE8EF
:100340000445A0EB010070474FEAC40420F003000D
:1003500050F8082B21F0030151F8083B0CFA04F483
:1003600062EA040263EA0403C9E710F003041AD046
:10037000A1EB040120F00300E40750F8042B06D0A1
:100380000FD28B785FFAA2F4E41A06D12BB1CB78A6
:100390005FFAB2F4E41A00D11BB920465DF8104BA5
:1003A000704701F1040150F8042BCC0721F0030140
:1003B00051F8043B48D824D222F07F4482FA4CF50D
:1003C00094EA1325A5FA8CF50AD165B951F8043BD6
:1003D00084EA0204B4EB036F0ED150F8042BEBE770
:1003E0004FEA132355E035F07F454DD10878FDE8FD
:1003F0000445C0F1000070474FEA126203F0FF03AA
:1004000047E002EA1C4482FA4CF594EA1345A5FA47
:100410008CF50AD165B951F8043B84EA0204B4EBC7
:10042000034F0CD150F8042BEBE74FEA134330E0B5
:1004300015EA1C4528D10B884FEA124229E04FEA01
:10044000124203EA1C4324E002F0FF0482FA4CF556
:1004500094EA1365A5FA8CF50AD165B951F8043B05
:1004600084EA0204B4EB032F09D150F8042BEBE724
:100470004FEA13630DE015F0FF0F05D10B684FEA4B
:10048000122223F07F4304E04FF00000FDE8044512
:10049000704712BA1BBA82FA4CF482EA0304A4FA37
:1004A0008CF5B5FA85F402FA04F203FA04F34FEA84
:1004B0001260FDE80445A0EB1360704700000000E7
:1004C00001F0FF01102A2BDB10F0070F08D010F805
:1004D000013B013A8B422DD010F0070F42B3F6D109
:1004E000F0B441EA012141EA014122F007047FF022
:1004F00000070023F0E80256083C85EA010586EA79
:10050000010685FA47F5A3FA87F586FA47F6A5FAB4
:1005100087F68EB9EED1F0BC01F0FF0102F00702C0
:1005200032B110F8013B013A83EA010313B1F8D16B
:100530000020704701387047002D06BF354603384C
:10054000073815F0010F07D1013015F4807F02BF85
:10055000013015F4C03F0130F0BC0138704700BFD6
:100560004A4C494E4B4D4F4E48414E444C4552002B
:1005700000B54AF03FFA5DF804EB134B02E058680F
:100580000003FCD4586840F40020586000B54AF0DD
:1005900032FA5DF804EB0C4B5868000DF6D218687F
:1005A000010A0006000E002812D0022818D002D33B
:1005B000032814D0E6E7586820F40020586000B5FE
:1005C0004AF017FA00BD00BFF8ED00E088ED00E04A
:1005D00064201860586840F400205860CFE77DE040
:1005E0005FEADE022CBFEFF30982EFF308820429F1
:1005F00002D252F821006BE0052901D2204667E0C3
:10060000062901D2284663E0072901D230465FE07F
:10061000082901D238465BE0092901D2404657E05B
:100620000A2901D2484653E00B2901D250464FE037
:100630000C2901D258464BE00E2901D2106947E03F
:100640000F2901D2506943E0102901D290693FE09F
:10065000112901D2D0693BE012290ED2EFF30880B4
:100660005FEADE0131D25FEA5E112CBF20306830D4
:10067000D169490928BF04302AE0132905D2EFF3D4
:1006800009805FEADE0120D3EDE714291CD20020A7
:10069000EFF310821043EFF3118212021043EFF3D5
:1006A000138212041043EFF314825FEADE0128BFC5
:1006B00042F002025FEA5E112CBF22F0040242F017
:1006C00004021206104303E000E001E00020FFE70F
:1006D0001860586840F40020586050E7586840F4AB
:1006E0000020586058680003FCD418685FEADE02F6
:1006F0002CBFEFF30982EFF30882042902D242F8FB
:10070000210061E0052901D204465DE0062901D2FD
:10071000054659E0072901D2064655E0082901D2CD
:10072000074651E0092901D280464DE00A2901D24D
:10073000814649E00B2901D2824645E00C2901D2CD
:10074000834641E00E2901D210613DE00F2901D21C
:10075000506139E0102901D2906135E0112901D2B0
:10076000D06131E0122900D22EE0132900D22BE013
:10077000142927D20106090E81F310880104090EFD
:1007800081F311880102090E81F31388010E880894
:100790002CBF4EF0040E2EF0040E21F00201C8080A
:1007A0002CBF2EF0100E4EF0100EEFF31480C00888
:1007B0002CBF41F0040121F0040181F31488BFF340
:1007C0006F8F01E0FFE7FFE7DCE600BF4FF0FF0CB3
:1007D0001CEAD0521EBF1CEAD15392EA0C0F93EAD6
:1007E0000C0F6FD01A4480EA010C400218BF5FEA78
:1007F00041211ED04FF0006343EA501043EA5111EB
:10080000A0FB01310CF00040B1F5000F3EBF4900E4
:1008100041EAD3715B0040EA010062F17F02FD2AE8
:100820001DD8B3F1004F40EBC25008BF20F00100CB
:10083000704790F0000F0CF0004C08BF49024CEAE2
:10084000502040EA51207F3AC2BFD2F1FF0340EA74
:10085000C250704740F400004FF00003013A5DDCE5
:1008600012F1190FDCBF00F000407047C2F1000226
:10087000410021FA02F1C2F1200200FA02FC5FEA13
:10088000310040F1000053EA4C0308BF20EADC705D
:10089000704792F0000F00F0004C02BF400010F4CF
:1008A000000F013AF9D040EA0C0093F0000F01F07C
:1008B000004C02BF490011F4000F013BF9D041EA9E
:1008C0000C018FE70CEAD15392EA0C0F18BF93EAA0
:1008D0000C0F0AD030F0004C18BF31F0004CD8D1CA
:1008E00080EA010000F00040704790F0000F17BF51
:1008F00090F0004F084691F0000F91F0004F14D097
:1009000092EA0C0F01D142020FD193EA0C0F03D1EE
:100910004B0218BF084608D180EA010000F00040F1
:1009200040F0FE4040F40000704740F0FE4040F4CC
:100930004000704781F0004102E000BF83F00043B7
:1009400030B54FEA41044FEA430594EA050F08BF6A
:1009500090EA020F1FBF54EA000C55EA020C7FEA2E
:10096000645C7FEA655C00F0E2804FEA5454D4EBAB
:100970005555B8BF6D420CDD2C4480EA020281EA75
:10098000030382EA000083EA010180EA020281EAAD
:100990000303362D88BF30BD11F0004F4FEA0131FF
:1009A0004FF4801C4CEA113102D0404261EB41010E
:1009B00013F0004F4FEA03334CEA133302D0524294
:1009C00063EB430394EA050F00F0A780A4F1010450
:1009D000D5F1200E0DDB02FA0EFC22FA05F280188A
:1009E00041F1000103FA0EF2801843FA05F3594170
:1009F0000EE0A5F120050EF1200E012A03FA0EFCEF
:100A000028BF4CF0020C43FA05F3C01851EBE37118
:100A100001F0004507D54FF0000EDCF1000C7EEB35
:100A200000006EEB0101B1F5801F1BD3B1F5001F73
:100A30000CD349085FEA30004FEA3C0C04F1010492
:100A40004FEA445212F5800F80F09A80BCF1004FBB
:100A500008BF5FEA500C50F1000041EB045141EA3D
:100A6000050130BD5FEA4C0C404141EB0101013C06
:100A700028BFB1F5801FE9D291F0000F04BF0146F5
:100A80000020B1FA81F308BF2033A3F10B03B3F1C7
:100A900020020CDA0C3208DD02F1140CC2F10C0257
:100AA00001FA0CF021FA02F10CE002F11402D8BFB5
:100AB000C2F1200C01FA02F120FA0CFCDCBF41EA81
:100AC0000C019040E41AA2BF01EB0451294330BD50
:100AD0006FEA04041F3C1CDA0C340EDC04F114042D
:100AE000C4F1200220FA04F001FA02F340EA030004
:100AF00021FA04F345EA030130BDC4F10C04C4F14A
:100B0000200220FA02F001FA04F340EA0300294629
:100B100030BD21FA04F0294630BD94F0000F83F473
:100B2000801306BF81F480110134013D4EE77FEA56
:100B3000645C18BF7FEA655C29D094EA050F08BFA2
:100B400090EA020F05D054EA000C04BF1946104683
:100B500030BD91EA030F1EBF0021002030BD5FEAC7
:100B6000545C05D14000494128BF41F0004130BDEF
:100B700014F580043CBF01F5801130BD01F0004543
:100B800045F0FE4141F470014FF0000030BD7FEAB6
:100B9000645C1ABF194610467FEA655C1CBF0B46B1
:100BA000024650EA013406BF52EA033591EA030FC8
:100BB00041F4002130BD00BF90F0000F04BF0021C0
:100BC000704730B54FF4806404F132044FF00005F3
:100BD0004FF0000150E700BF90F0000F04BF00216C
:100BE000704730B54FF4806404F1320410F00045D2
:100BF00048BF40424FF000013EE700BF42004FEACD
:100C0000E2014FEA31014FEA02701FBF12F07F4349
:100C100093F07F4F81F06051704732F07F4208BF00
:100C2000704793F07F4F04BF41F40021704730B507
:100C30004FF4607401F0004521F000411CE700BF53
:100C400050EA010208BF704730B54FF000050AE0D6
:100C500050EA010208BF704730B511F0004502D5D7
:100C6000404261EB41014FF4806404F132045FEAD9
:100C7000915C3FF4D8AE4FF003025FEADC0C18BF82
:100C800003325FEADC0C18BF033202EBDC02C2F174
:100C9000200300FA03FC20FA02F001FA03FE40EA06
:100CA0000E0021FA02F11444BDE600BF70B54FF00A
:100CB000FF0C4CF4E06C1CEA11541DBF1CEA1355E8
:100CC00094EA0C0F95EA0C0F00F0DEF82C4481EA50
:100CD000030621EA4C5123EA4C5350EA013518BF70
:100CE00052EA033541F4801143F4801338D0A0FB5D
:100CF00002CE4FF00005E1FB02E506F00042E0FB0A
:100D000003E54FF00006E1FB03569CF0000F18BF0F
:100D10004EF0010EA4F1FF04B6F5007F64F54074B7
:100D200004D25FEA4E0E6D4146EB060642EAC6214A
:100D300041EA55514FEAC52040EA5E504FEACE2EB7
:100D4000B4F1FD0C88BFBCF5E06F1ED8BEF1004FBA
:100D500008BF5FEA500E50F1000041EB045170BD36
:100D600006F0004646EA010140EA020081EA03017A
:100D7000B4EB5C04C2BFD4EB0C0541EA045170BD76
:100D800041F480114FF0000E013C00F3AB8014F1F0
:100D9000360FDEBF002001F0004170BDC4F1000439
:100DA000203C35DA0C341BDC04F11404C4F12005BA
:100DB00000FA05F320FA04F001FA05F240EA020015
:100DC00001F0004221F0004110EBD37021FA04F64B
:100DD00042EB06015EEA430E08BF20EAD37070BD05
:100DE000C4F10C04C4F1200500FA04F320FA05F064
:100DF00001FA04F240EA020001F0004110EBD37066
:100E000041F100015EEA430E08BF20EAD37070BDD5
:100E1000C4F1200500FA05F24EEA020E20FA04F3AE
:100E200001FA05F243EA020321FA04F001F000415D
:100E300021FA04F220EA020000EBD3705EEA430ECE
:100E400008BF20EAD37070BD94F0000F0FD101F0FD
:100E50000046400041EB010111F4801F08BF013C36
:100E6000F7D041EA060195F0000F18BF704703F074
:100E70000046520043EB030313F4801F08BF013DFB
:100E8000F7D043EA0603704794EA0C0F0CEA1355B7
:100E900018BF95EA0C0F0CD050EA410618BF52EA71
:100EA0004306D1D181EA030101F000414FF0000077
:100EB00070BD50EA410606BF1046194652EA430685
:100EC00019D094EA0C0F02D150EA013613D195EAF9
:100ED0000C0F05D152EA03361CBF104619460AD141
:100EE00081EA030101F0004141F0FE4141F470014B
:100EF0004FF0000070BD41F0FE4141F4780170BD3B
:100F000070B54FF0FF0C4CF4E06C1CEA11541DBF9F
:100F10001CEA135594EA0C0F95EA0C0F00F0A7F8A1
:100F2000A4EB050481EA030E52EA03354FEA0131CE
:100F300000F088804FEA03334FF0805545EA1313E1
:100F400043EA12634FEA022245EA111545EA1065A9
:100F50004FEA00260EF000419D4208BF964244F140
:100F6000FD0404F5407402D25B084FEA3202B61A5F
:100F700065EB03055B084FEA32024FF480104FF433
:100F8000002CB6EB020E75EB030E22BFB61A7546A7
:100F900040EA0C005B084FEA3202B6EB020E75EB3A
:100FA000030E22BFB61A754640EA5C005B084FEAA2
:100FB0003202B6EB020E75EB030E22BFB61A75466F
:100FC00040EA9C005B084FEA3202B6EB020E75EB7A
:100FD000030E22BFB61A754640EADC0055EA060E3B
:100FE00018D04FEA051545EA16754FEA06164FEA7E
:100FF000C30343EA52734FEAC2025FEA1C1CC0D12A
:1010000011F4801F0BD141EA00014FF000004FF0B6
:10101000004CB6E711F4801F04BF01430020B4F177
:10102000FD0C88BFBCF5E06F3FF6AFAEB5EB030C2F
:1010300004BFB6EB020C5FEA500C50F1000041EB2C
:10104000045170BD0EF0004E4EEA113114EB5C04F9
:10105000C2BFD4EB0C0541EA045170BD41F48011CC
:101060004FF0000E013C90E645EA060E8DE60CEAD4
:10107000135594EA0C0F08BF95EA0C0F3FF43BAFF1
:1010800094EA0C0F0AD150EA01347FF434AF95EAA8
:101090000C0F7FF425AF104619462CE795EA0C0F8C
:1010A00006D152EA03353FF4FDAE1046194622E759
:1010B00050EA410618BF52EA43067FF4C5AE50EA33
:1010C00041047FF40DAF52EA43057FF4EBAE12E723
:1010D0004FF0FF3C06E000BF4FF0010C02E000BF04
:1010E0004FF0010C4DF804CD4FEA410C7FEA6C5CE7
:1010F0004FEA430C18BF7FEA6C5C1BD001B050EA8A
:10110000410C0CBF52EA430C91EA030F02BF90EA74
:10111000020F0020704710F1000F91EA030F58BF33
:10112000994208BF90422CBFD8176FEAE37040F095
:10113000010070474FEA410C7FEA6C5C02D150EA33
:10114000013C07D14FEA430C7FEA6C5CD6D152EAEE
:10115000033CD3D05DF8040B704700BF84461046B3
:1011600062468C461946634600E000BF01B5FFF7B2
:10117000B7FF002848BF10F1000F01BD4DF808ED82
:10118000FFF7F4FF0CBF012000205DF808FB00BF53
:101190004DF808EDFFF7EAFF34BF012000205DF8AD
:1011A00008FB00BF4DF808EDFFF7E0FF94BF0120FA
:1011B00000205DF808FB00BF4DF808EDFFF7CEFFFB
:1011C00094BF012000205DF808FB00BF4DF808ED3A
:1011D000FFF7C4FF34BF012000205DF808FB00BF0B
:1011E0004FEA410212F5001215D211D56FF478734F
:1011F000B3EB625212D94FEAC12343F0004343EAF2
:10120000505311F0004F23FA02F018BF40427047CC
:101210004FF00000704750EA013005D111F0004056
:1012200008BF6FF0004070474FF00000704700BFEC
:101230004A0011D212F5001211D20DD56FF4787355
:10124000B3EB62520ED44FEAC12343F0004343EAAA
:10125000505323FA02F070474FF00000704750EAF5
:10126000013002D14FF0FF3070474FF0000070475F
:101270004FEA4102B2F1E04324BFB3F5001CDCF1B8
:10128000FE5C0DD901F0004C4FEAC0024CEA5070F0
:10129000B2F1004F40EB830008BF20F0010070471F
:1012A00011F0804F21D113F13872BCBF01F0004022
:1012B000704741F480114FEA5252C2F11802C2F154
:1012C000200C10FA0CF320FA02F018BF40F00100D5
:1012D0004FEAC1234FEAD32303FA0CFC40EA0C0087
:1012E00023FA02F34FEA4303CCE77FEA625307D1C4
:1012F00050EA01331EBF4FF0FE4040F440007047FB
:1013000001F0004040F0FE4040F40000704700BF94
:1013100080F0004002E000BF81F0004142001FBFAA
:101320005FEA410392EA030F7FEA226C7FEA236CB3
:101330006AD04FEA1262D2EB1363C1BFD2184140A8
:1013400048404140B8BF5B42192B88BF704710F03E
:10135000004F40F4000020F07F4018BF404211F0E1
:10136000004F41F4000121F07F4118BF494292EA49
:10137000030F3FD0A2F1010241FA03FC10EB0C0075
:10138000C3F1200301FA03F100F0004302D5494202
:1013900060EB4000B0F5000F13D3B0F1807F06D3AF
:1013A00040084FEA310102F10102FE2A51D2B1F1A7
:1013B000004F40EBC25008BF20F0010040EA03009C
:1013C0007047490040EB0000013A28BFB0F5000F1C
:1013D000EDD2B0FA80FCACF1080CB2EB0C0200FAD2
:1013E0000CF0AABF00EBC25052421843BCBFD04021
:1013F0001843704792F0000F81F4000106BF80F49B
:1014000000000132013BB5E74FEA41037FEA226C5D
:1014100018BF7FEA236C21D092EA030F04D092F028
:10142000000F08BF0846704790EA010F1CBF00205C
:10143000704712F07F4F04D1400028BF40F00040B9
:10144000704712F100723CBF00F50000704700F0D9
:10145000004343F0FE4040F4000070477FEA226200
:1014600016BF08467FEA23630146420206BF5FEAD1
:10147000412390EA010F40F4800070474FF00003D1
:1014800004E000BF10F0004348BF40425FEA000C98
:1014900008BF704743F0964301464FF000001CE040
:1014A00050EA010208BF70474FF000030AE000BF96
:1014B00050EA010208BF704711F0004302D54042D4
:1014C00061EB41015FEA010C02BF84460146002046
:1014D00043F0B64308BFA3F18053A3F50003BCFA61
:1014E0008CF2083AA3EBC25310DB01FA02FC63440E
:1014F00000FA02FCC2F12002BCF1004F20FA02F215
:1015000043EB020008BF20F00100704702F1200207
:1015100001FA02FCC2F1200250EA4C0021FA02F268
:1015200043EB020008BF20EADC7070474FF0FF3C3D
:1015300006E000BF4FF0010C02E000BF4FF0010CCD
:101540004DF804CD4FEA40024FEA41037FEA226C96
:1015500018BF7FEA236C11D001B052EA530C18BFB8
:1015600090EA010F58BFB2EB030088BFC81738BF1D
:101570006FEAE17018BF40F0010070477FEA226C0B
:1015800002D15FEA402C05D17FEA236CE4D15FEA07
:10159000412CE1D05DF8040B704700BF844608463B
:1015A0006146FFE70FB5FFF7C9FF002848BF10F1FC
:1015B000000F0FBD4DF808EDFFF7F4FF0CBF012041
:1015C00000205DF808FB00BF4DF808EDFFF7EAFFCB
:1015D00034BF012000205DF808FB00BF4DF808ED86
:1015E000FFF7E0FF94BF012000205DF808FB00BF7B
:1015F0004DF808EDFFF7D2FF94BF012000205DF801
:1016000008FB00BF4DF808EDFFF7C8FF34BF01200D
:1016100000205DF808FB00BF53B94AB9002908BF94
:1016200000281CBF4FF0FF314FF0FF3000F02AB808
:10163000ADF1080C6DE904CE18F024FDDDF804E0EE
:10164000DDE9022304B07047D0B50C4B00220646FA
:101650000F46FFF72BFBFFF7EBFD0446FFF7ACFA55
:10166000074B0022FFF722FB02460B463046394665
:10167000FFF764F9FFF7DCFD2146D0BD0000F03D27
:101680000000F041704700BF2DE9F00791E8F8072E
:10169000B2E802105B1854EB0C04B2E802104D41A2
:1016A00056EB0C06B2E802104F4158EB0C08B2E8BA
:1016B000021059EB01095AEB0C0A80E8F807804147
:1016C0000130BDE8F00770472DE9F00791E8F80711
:1016D000B2E802105B1A74EB0C04B2E802108D4100
:1016E00076EB0C06B2E802108F4178EB0C08B2E8FA
:1016F000021079EB01097AEB0C0A80E8F8078041C7
:101700004042BDE8F00770472DE9F007524290E8EB
:101710007800B1E880071740DB1918EA020854EB9B
:10172000080419EA020955EB09051AEA020A56EB00
:101730000A0678C090E87800B1E8800717407B413E
:1017400018EA020854EB080419EA020955EB0905E6
:101750001AEA020A56EB0A0678C080410130BDE859
:10176000F00770472DE9F007524290E87800B1E8A1
:1017700080071740DB1B18EA020874EB080419EA1B
:10178000020975EB09051AEA020A76EB0A0678C027
:1017900090E87800B1E880071740BB4118EA0208DA
:1017A00074EB080419EA020975EB09051AEA020A42
:1017B00076EB0A0678C080414042BDE8F0077047EA
:1017C0002DE9F00152424FF0040890E8300091E812
:1017D000C000A31B1340E41AF618EB1B1340ED1ACC
:1017E000FF1830C0C0C1B8F10108EED1BDE8F0016A
:1017F000704700BF00B592E8DC072DE9DC07B1E8CF
:10180000805702B4A7FB02510A95A8FB020BE7FB25
:101810006310E9FB62B00B91A8FB0351EAFB620184
:10182000E7FB64B5E7FB6605E8FB6615CDF830B06D
:10183000A9FB03B6EAFB6316ECFB6356E8FB640BFB
:10184000E9FB641BEAFB645BECFB646B0D90ACFB97
:101850000230059CEEFB6250E9FB6460EAFB64B079
:10186000E7FB6431E8FB6451069CE8FB6461E9FB3B
:1018700064B1EAFB64010E93A7FB0432079CE7FB0B
:101880006462E8FB64B2E9FB6402EAFB6412049C54
:10189000E9FB6453EAFB6463089CE7FB64B3E8FB81
:1018A0006403E9FB6413EAFB64230F955DF8049B72
:1018B00099E80006DDF80080A9FB0854EAFB68B44B
:1018C000DDF81080ECFB6804EEFB6814E9FB68248B
:1018D000EAFB6834DDF80480EEFB6865E9FB68B577
:1018E000EAFB6805DDF81480ECFB6815EEFB682563
:1018F000E9FB6835EAFB68450F96DDF80880AEFB2A
:101900000876E9FB6806EAFB6816DDF81880ECFB50
:101910006826EEFB6836E9FB6846EAFB6856DDF8A8
:101920000C80ECFB68B7EEFB6807E9FB6817EAFB85
:101930006827DDF81C80ECFB6837EEFB6847E9FBA5
:101940006857EAFB686708B000BD00BF2DE9F14F9A
:1019500087B0FFF74FFFDDF81C8008F1200888E80A
:10196000FF00FFBC87E87F08BDE8F08F00B591E875
:101970009857A3FB03520195A3FB0401E3FB6420EA
:10198000E3FB67100292A3FB0752E3FB6802E4FB50
:101990006415E3FB6805E3FB69250391A4FB07B627
:1019A000E3FB6926E3FB6A56E4FB670BE4FB682B69
:1019B000E3FB6A5BE3FB6C6B0490A4FB0810E4FBA5
:1019C0006950E3FB6C60E3FB6EB0E7FB6721E4FB6F
:1019D0006951E4FB6A61E3FB6EB1E4FB6E010592C1
:1019E000A7FB0832E4FB6A62E4FB6CB2E4FB6E0224
:1019F000E7FB6E12E7FB6853E7FB6963E4FB6CB33C
:101A0000E7FB6C03E7FB6E13E8FB6E230695A7FB71
:101A10000954E7FB6AB4E7FB6C04E8FB6C14E8FBD1
:101A20006E24E9FB6E34E8FB6865E7FB6AB5E8FB0A
:101A30006A05E8FB6C15E9FB6C25E9FB6E35EAFBF2
:101A40006E450796A8FB0976E8FB6A06E9FB6A166D
:101A5000E9FB6C26EAFB6C36EAFB6E46ECFB6E5645
:101A6000E8FB69B7E9FB6907E9FB6A17EAFB6A2744
:101A7000EAFB6C37ECFB6C47ECFB6E57EEFB6E67DA
:101A800000BD00BF2DE9F14F87B0FFF76FFFDDF814
:101A90001C8008F1200888E8FF00FFBC87E87F0869
:101AA000BDE8F08F30B44FF0000310F8014B11F88F
:101AB000015B013A84EA050443EA0403F5D1A3F18A
:101AC00001034FEAD37030BC704700BF4FF00003F2
:101AD00010F8012B013943EA0203F9D1A3F1010304
:101AE0004FEAD370704700BF30B411F8014B12F8C1
:101AF000015B6C4000F8014B013BF6D130BC7047F4
:101B00002DE9F00791E8F807B2E802105B1854EBF2
:101B10000C04B2E802104D4156EB0C06B2E802107C
:101B20004F4158EB0C08B2E8021059EB01095AEB8F
:101B30000C0A8941B3F1FF3374F1FF3475F1FF35BD
:101B400076F1000677F1000778F1000879F10109D4
:101B50007AF1FF3A51F100015B184C414D4156F1C9
:101B6000000657F1000758F1000859EBD1795AEBFC
:101B7000010A80E8F807BDE8F00770472DE9F00793
:101B800091E8F807B2E802105B1A74EB0C04B2E8B3
:101B900002108D4176EB0C06B2E802108F4178EB13
:101BA0000C08B2E8021079EB01097AEB0C0A8941C2
:101BB0005B184C414D4156F1000657F1000758F1B2
:101BC000000859EBD1795AEB010A80E8F807BDE823
:101BD000F007704718EB040859EB05095AEB060AA1
:101BE0005BEB070B5FF0000C4CF1000C18EB0508E9
:101BF00059EB06095AEB070A5BEB070B50EB0C009D
:101C00005FF0000C51EB0C0152EB0C0263414CF104
:101C1000000CB8EB070879F100097AF1000A7BEBB8
:101C2000040BA841B141A241B3416CF1000CBBEBE4
:101C3000050BB041B941AA41BB416CF1000C4CF01D
:101C400001068CF0020718EB060859EB6C095AEBF9
:101C50006C0A7BEB6C0B70EB6C0471EB6C0572EB3C
:101C6000670653EB6C076CEB6C0C18EB0C0059EB34
:101C70000C015AEB0C025BF1000354F1000455F126
:101C8000000556EBDC7657EB0C0770472DE9F14F5A
:101C900087B0FFF7AFFDDDF81080DDF81490DDF8B8
:101CA00018A0FFF797FFBDE8000FFFF793FF03B001
:101CB0005DF8048B88E8FF00BDE8F08F2DE9F14F57
:101CC00087B0FFF753FEDDF81080DDF81490DDF8E3
:101CD00018A0FFF77FFFBDE8000FFFF77BFF03B001
:101CE0005DF8048B88E8FF00BDE8F08F844641EA88
:101CF000000313F003036DD1403A41D351F8043B84
:101D000040F8043B51F8043B40F8043B51F8043BD5
:101D100040F8043B51F8043B40F8043B51F8043BC5
:101D200040F8043B51F8043B40F8043B51F8043BB5
:101D300040F8043B51F8043B40F8043B51F8043BA5
:101D400040F8043B51F8043B40F8043B51F8043B95
:101D500040F8043B51F8043B40F8043B51F8043B85
:101D600040F8043B51F8043B40F8043B51F8043B75
:101D700040F8043B51F8043B40F8043B403ABDD2E4
:101D8000303211D351F8043B40F8043B51F8043B86
:101D900040F8043B51F8043B40F8043B51F8043B45
:101DA00040F8043B103AEDD20C3205D351F8043B15
:101DB00040F8043B043AF9D2043208D0D2071CBFE1
:101DC00011F8013B00F8013B01D30B88038060460A
:101DD000704700BF082A13D38B078DD010F0030380
:101DE0008AD0C3F10403D21ADB071CBF11F8013BF0
:101DF00000F8013B80D331F8023B20F8023B7BE73F
:101E0000043AD9D3013A11F8013B00F8013BF9D269
:101E10000B7803704B7843708B7883706046704703
:101E20004FEA410C7FEA6C5C02D150EA013C0AD1D6
:101E30004FEA430C7FEA6C5C02D152EA033C02D1C8
:101E40004FF0000070474FF0010070472DE9F04758
:101E5000A74D86B0EA7B0023CDE902338DF80E2032
:101E60006A7D8DF81020AA7D2B788DF81120EA7DEF
:101E70008DF809308DF812206B782A7E8DF80A30A3
:101E80008DF81320AB786A7E8DF80B308DF8142016
:101E9000EB7895F826208DF80C30C41D2B798DF841
:101EA0000D3007460E4624F007040AB18DF80F30B6
:101EB000002E08BF204602A918BF002000F09EFD9A
:101EC00095F800806B784FF0000A984404445FFA5C
:101ED00088F8D1465FFA8AF34345C0F0F7800334AF
:101EE000002E24F0030449460CBF2046002000F0D9
:101EF0006DFFA978044479B1EB78EA7BE01C20F00F
:101F00000304002E1A4408BF20466B89D2B218BFC2
:101F1000002000F0CFFF044495F827308BB1697A98
:101F200079B195F82830E01C002B20F0030414BF91
:101F3000FF222522002E0CBF2046002001F0AAF827
:101F40000444297B81B1AB7823B995F827305BB184
:101F50006B7A4BB1E01D20F00704002E0CBF204629
:101F600000200EF06BFF0444624B1B6863B12979BB
:101F700051B1E01C20F00304002E08BF20466A7B0C
:101F800018BF0020984704445B4B1B6853B1A97BE2
:101F900041B1E01C20F00304002E0CBF20460020BD
:101FA00098470444554BD3F80080B8F1000F0FD088
:101FB000E97B69B1E01CAB7C009320F00304002EA8
:101FC00008BF20466B7C2A7C18BF0020C047044411
:101FD00095F826306BB1297959B1E01C20F0030443
:101FE000002E08BF20462A7D18BF002001F088F887
:101FF0000444E87F68B16B7EA97D033424F00704B4
:1020000044F00404194422463346C9B201F0B8F83A
:10201000044495F82010002962D0E01D20F0070844
:10202000002E4FF0FB020CBF4046002019F005F9CE
:1020300008EB00041EB9FB21404613F0F9FEA97E0F
:1020400000294FD0AB7F002B4CD0E01D20F00708BB
:10205000002E4FF48C720CBF4046002019F0EDF8B2
:1020600008EB00042B7EA97DA87F033424F007042D
:1020700044F00404194422463346C9B201F072F810
:1020800004442EB9A97E4FF48A72404613F0F2FE42
:10209000EB6A13B106B9EC62283495F8241089B1C3
:1020A000E01D20F00705002E42F210720CBF2846FA
:1020B000002019F0C2F82C1826B942F210712846F7
:1020C00013F0DEFEE01B06B0BDE8F0872B7AEA795C
:1020D000A979687919F083F80AF1010A8144F9E6CF
:1020E0008846A7E7002ED3D1324631463046CDE7A9
:1020F000C8170020540000205C0000205800002079
:102100008FB572B6194B1D6BE5B9BFF34F8F1849E8
:10211000184BCA6802F4E0621343CB60BFF34F8FE1
:1021200000BFFDE7B4FBF6F4DAB20133002CF9D1BD
:1021300002F110036B440A2603F80C4C32B901A8D3
:10214000A847E2E7044600230A26EDE7531E04AC45
:1021500054FA83F4DAB2C3B2B3FBF6F706FB1733D3
:10216000303304F80C3CB0FBF6F0E7E7C81700206A
:1021700000ED00E00400FA051FB5164C237A8DF837
:102180000930E3798DF80830A379ADF80C3002A856
:102190006379ADF80A300CF0C5FE18B1B521032003
:1021A000FFF7AEFF012301A88DF804301AF033FBCE
:1021B00008B1B921F3E7A07C0CF0ECFE08B1BC211A
:1021C000EDE7607C0CF0E0FE08B1BD21E7E704B06C
:1021D00010BD00BFC817002038B50546002842D002
:1021E00017F046FB10B94FF0FF3038BD14F060F91E
:1021F000B0F5FA7FF7D81E4C1E482563002500F085
:10220000B5FA26222946204684F8345084F8355001
:1022100084F8275084F82850E56284F8265017F097
:1022200001FE1B22627140F21B32E28040F2023258
:1022300040F2011322811F222380628101234FF487
:102240000272A370A281237544F60112FB2322823D
:10225000A3836384EFF3108472B600F0B1FF2CB94E
:1022600062B62046C1E76FF01500BEE72846BCE71E
:10227000C81700207921000010B5002840F0A68082
:10228000554C94F83430002B40F09D80A1B1002AC9
:102290006DD00139142900F29980DFE801F00B19A3
:1022A0001C2C545C75325F6270383E4B507A7D8BCB
:1022B0008E9182001378237001210020FFF7C6FD64
:1022C000B0F5803F80F28580012384F8353010BD61
:1022D00013786370F0E79378002B48D0D378002B05
:1022E00045D013781A2B42D953781A2B3FD913684B
:1022F000C4F80530E0E71378E278934237D3A3704F
:10230000DAE71378A278934231D8E370D4E71378F0
:10231000A27893422BD8E373CEE713783BB353787C
:10232000013BDBB2F82B22D8138823822B4B927807
:102330009A70C1E71078E07411F0E6FCBCE71378FE
:10234000ABB12375B8E7137894F827200AB1012BB5
:102350000DD96372B0E713886381ADE713782371F9
:10236000AAE794F82610137821B9012B04D86FF04E
:102370001500ACE7002BFAD0137863739CE7137851
:10238000082BF4D8A37397E71388FF2BEFD8237398
:1023900092E7137863758FE713780E2BE7D8A37550
:1023A0008AE713680E49C4F81A3053684B601389E2
:1023B0000B8181E71378E3757EE7137863767BE71B
:1023C0001378237678E74FF0FF3080E76FF02C002A
:1023D0007DE76FF00B007AE7C8170020D8170020C0
:1023E000E217002070B50D460646F0B1E9B111F0D4
:1023F00007041AD100F0EEF8D0B1304617F0E4FA35
:102400000D4E214686F836002846FFF71FFD1CF0CA
:102410007BFC96F83600F16A0CF08EFEFFF7ACFEFE
:10242000012386F83430204670BD6FF01500FBE7BD
:102430004FF0FF30F8E700BFC817002010B5084C78
:1024400094F834302BB10CF093FE94F8360017F06A
:10245000D7FA19F039F8002084F8340010BD00BF15
:10246000C817002050B1074B03F1140253F8041BA6
:1024700040F8041B9342F9D1002070476FF015001B
:10248000704700BF5EDF0400074B93F8352010B59E
:1024900032B993F834401CB90CF0E0FD204610BD71
:1024A0004FF0FF30FBE700BFC8170020074B93F841
:1024B000352010B532B993F834401CB90CF0E2FD68
:1024C000204610BD4FF0FF30FBE700BFC8170020CB
:1024D00010B50B4C94F835307BB994F8343063B9AF
:1024E00094F8283033B10CF00BFE012384F8273028
:1024F000002010BD0CF0E8FDF7E74FF0FF30F8E7E3
:10250000C8170020074B93F8352010B532B993F85F
:1025100034401CB90CF052FD204610BD4FF0FF3086
:10252000FBE700BFC8170020074B93F8352010B514
:1025300032B993F834401CB90CF032FD204610BD7E
:102540004FF0FF30FBE700BFC8170020074B93F8A0
:10255000352010B532B993F834401CB91AF0A4F9FB
:10256000204610BD4FF0FF30FBE700BFC81700202A
:10257000074B93F8352010B532B993F834401CB9A5
:102580001AF095F9204610BD4FF0FF30FBE700BF71
:10259000C8170020074B93F8352010B532B993F8CF
:1025A00034401CB91AF085F9204610BD4FF0FF30B9
:1025B000FBE700BFC817002007C8024B83E80700ED
:1025C0000020704700180020014B9B68184700BF8F
:1025D00000180020024B9868003818BF012070478F
:1025E0000018002073B52E4D031D04462B602846AD
:1025F0000DF08CFE0228064606D12949204617F028
:10260000EBFE304602B070BD042842D12B78092B76
:102610000AD0252B1ED02946204617F042FFB0F5E0
:10262000817F2DD3722112E005213E2017F0A7FEF5
:102630000028F0D1EB782A7901A943EA0223684601
:10264000ADF8003018F04BFB0028D0D05321082003
:10265000FFF756FD1A213E2017F091FE0028DAD12F
:102660006B68C3F30F23ADF804306946112301A84A
:102670008DF8063018F055FB0028B8D06521E6E744
:102680000028B4D0A178207817F079FE0028B8D1BE
:10269000ADE70828B5D10249204617F0CCFEB0E7D7
:1026A0000C180020074B4FF0FF3141F6FF72C3E9D1
:1026B000001205490022C1E900221F21C3E90212CC
:1026C000704700BF00000020101900203F280CD8E0
:1026D00001380B4BC0F3421200F01F0053F82230B8
:1026E00023FA00F000F001007047FF2806D04038C0
:1026F000C0F34212034B00F01F00EFE701207047C8
:1027000000000020101900200146074B00684968AE
:102710001A4603C240F48C221A6041F0107242F44F
:10272000FF625A60704700BF000000200246024B63
:102730000068516803C37047101900200246024B1D
:102740000068516803C37047080000200138064B39
:10275000C0F3421203EB820300F01F009B6823FAD0
:1027600000F000F00100704700000020014B1860ED
:10277000704700BF1819002010B5FFF793FF19F03C
:1027800088FA034B1B68044603B19847204610BDE6
:10279000181900200B880288F0B5C3F30E049EB20E
:1027A00004F11803C57CC35A05352A442B4497B25B
:1027B00013FA82F3013B4288B3FBF7F313FB0743A1
:1027C0009BB29A42044A93BF22EA06033240134363
:1027D0009BB20B80F0BD00BF0080FFFF10B5114B16
:1027E00000EB41041A786389B3FBF2F303FB022385
:1027F000013A1A44B2F5706F027928BF00231A44D7
:102800008378B2FBF3F0194403FB1020091AB1FBE3
:10281000F3F003FB101313446FEA43436FEA53438F
:10282000638110BD1C19002010B5124BE0B15A781D
:10283000022A04D040F259111720FFF761FC03224D
:102840005A70026812F0070102D04FF4AF71F3E73B
:102850005C685A60224402609A60BDE810403022F1
:1028600003F10C0017F0DEBA01225A70C3E901002F
:1028700010BD00BF1C1900202DE9F041254E96F82F
:1028800001E00EF0FD0CBCF1010F04D040F2731119
:102890001720FFF735FC91F80680B8F1080F02D930
:1028A00040F27511F4E7CF7997B34546022D72686F
:1028B00038BF02257B1D5C0002EB43036A1E1344F4
:1028C0006D422B408D884544013DC8F100022A40ED
:1028D0004FF6FE75AA4202D94FF4C071D8E7BEF197
:1028E000030F12D106EB80001C1BC56815B140F226
:1028F0008511CDE7C460A770228084F803C0087AF0
:1029000009682071080CE080218107FB02337360A5
:10291000BDE8F0811C1900202DE9F047364C6378A2
:10292000012B65D0032B04D040F295111720FFF73F
:10293000E7FBD4E901329A4202D04FF4CC71F5E7BB
:102940002546002305F80C3B1E460B22994655F8F8
:102950002200013A58B190F804808178B8F1FF0F55
:102960002FD180F804908E423CBFCEB20123511C7F
:10297000EDD103B126700B2640F6FF6955F826709D
:102980009FBB013EFAD2042363700020BDE8F087AC
:1029900055F82CE0BEF1000F06D09EF804A0C24509
:1029A00004BF9EF802E077440CF1FF3CBCF1000F3D
:1029B000EEDA3944FF2907D903B126704FF49A7132
:1029C000B4E794460027F1E70771CCE707EB410332
:1029D0003846A3F80A90FFF701FF08F10108BB7819
:1029E0005FFA88F18B42F1D8CBE74FF00008F6E7A9
:1029F000022360686370C9E71C1900202DE9FF47B6
:102A00004A788B781344FF2B06460C4604D940F2D3
:102A1000AB111720FFF774FB0B78934202D940F2F9
:102A2000AF11F6E7DFF8D481009038B198F80130A3
:102A3000022B02D00020FFF7E1FF6846FFF7F4FE0B
:102A400000276F4A6378019208254FF45A7201A952
:102A50003846ADF808208DF80B308DF80A508DF807
:102A60000C70FFF709FF674AA378019201A94FF4A0
:102A70007A720120ADF808208DF80B308DF80A50DD
:102A80008DF80C70FFF7F8FE5F4AE37801924FF083
:102A9000FF094FF4AC7201A90220ADF808208DF8AF
:102AA0000B308DF80A508DF80C90FFF7E5FE574A71
:102AB0002379019201A990220320ADF808208DF816
:102AC0000B308DF80A508DF80C90FFF7D5FE637926
:102AD0004F4A01928DF80B30A822012301A904204E
:102AE000ADF808208DF80C308DF80A50FFF7C4FEC1
:102AF000A379484A0192CDE902778DF80A508DF802
:102B00000B308DF80C901BB111F0F2F8ADF8080005
:102B100001A90520FFF7B0FE3F4AE379019208259D
:102B200080224FF0FF0901A90620ADF808208DF89A
:102B30000B308DF80C908DF80A50FFF79DFE237A2C
:102B4000364A01928DF80B307822022301A9072022
:102B5000ADF808208DF80C308DF80A50FFF78CFE88
:102B60002F4A637A019200274FF40A7201A928467E
:102B7000ADF808208DF80B308DF80A508DF80C70E8
:102B8000FFF77AFE274AA37A019201A94FF48C72CB
:102B90000920ADF80820DFF890A08DF80B308DF8F3
:102BA0000C908DF80A504FF48879FFF765FEE37AB0
:102BB0008DF80B3001A90A20CDF804A0ADF80890DB
:102BC0008DF80A508DF80C70FFF756FE237B8DF8B8
:102BD0000B3001A90B20CDF804A0ADF808908DF8BA
:102BE0000A508DF80C70FFF747FEFFF795FED8F8F6
:102BF0000400801B04B0BDE8F08700BF1C19002052
:102C000029EB010085E801000D590000CFEB010020
:102C1000153D0100C1EC0100C5EC010069D90000BF
:102C2000D1D80000BDD9000065DA0000F8B54FF634
:102C3000FF730380184B03EB81030546D868B8B1D6
:102C400086780379B3FBF6F206FB1233DBB2194642
:102C50000A1D00EB4202B2F902705488002F09DB12
:102C60000131B1FBF6F206FB1211C9B28B42EFD172
:102C70000020F8BDFF29FBD0C4F30E03C4782B80DD
:102C800024B940F2C7211720FFF73AFA5380BDE874
:102C9000F84018F083BA00BF1C1900201E4B03EB4C
:102CA000810370B5DC6805464CB3B0F5706F04D392
:102CB00040F2D5211720FFF723FA0146204618F0ED
:102CC0004FFAFF28014604D02046BDE8704018F0B6
:102CD00065BAA078B5FBF0F300FB1353DBB21946DD
:102CE0000A1D04EB4206B6F90260002E09DB013131
:102CF000B1FBF0F200FB1211C9B28B42F0D10020FF
:102D000070BDFF29FBD08B4204EB42021CBF0023A5
:102D1000E3705580D8E700BF1C190020094B03EB76
:102D2000810310B5DC680146204618F019FAFF2827
:102D3000014604D02046BDE8104018F02FBA00200C
:102D400010BD00BF1C1900200F4B03EB810370B5B1
:102D5000DC6801460646204618F002FAFF280546C0
:102D600010D00146204618F019FAE288238901465E
:102D700043EA02433046984720462946FFF72EFD96
:102D8000002070BD0320FCE71C19002038B50E4B55
:102D9000827903EB82030446D86808B9022038BD63
:102DA0008278E1799142F9D24B1CE37100EB410347
:102DB0005D89B3F90A30002BF3DBA58018F0EEF93A
:102DC00020600020EBE700BF1C19002070B504460E
:102DD00010F003000E4603D049211820FFF790F9A8
:102DE00018F062F9054624B103483146046018F032
:102DF0005BF9284670BD00BF581900202DE9F04F3F
:102E00001E4C85B092462268BDF83CB0984681467B
:102E1000BDF838300D461AB95B211820FFF770F95C
:102E20001A460A215046039317F0D1FF5A46064628
:102E30000921404617F0CBFF31180746206818F0EB
:102E40005EF9039BC9F8000018B9286005B0BDE819
:102E5000F08F84192C60D9F8000000935246314657
:102E60000A2317F066FF2868CDF838B009234246D8
:102E7000394605B0BDE8F04F17F05BBF5819002088
:102E800070B50E46044617F0ABFF0546304617F006
:102E9000A7FF044B2A1821461868BDE8704018F0B7
:102EA00058B900BF58190020014B186818F01AB91A
:102EB00058190020F8B511441D4EC9B210F0030591
:102EC000317003D04E210920FFF71AF91F2B19D8B2
:102ED0009B009BB2033323F003039BB208B17060E5
:102EE000338101EB81047668E2004FF0010C00EBC6
:102EF000C404EFB2B94212D8D01D03FB010020F088
:102F00000700F8BDFF2B4FEA430204D9FF33934279
:102F1000DFDB93B2DEE77C2AFBDC7C23DAE710B14F
:102F200086F800C07460013528361C44E1E700BF14
:102F30005C19002038B5144A147853680021C8B2CF
:102F4000844203D8A9210920FFF7DAF81846013195
:102F500005782833002DF2D0012412894470002115
:102F6000446881708161C161920800F12001051DF2
:102F700021F8022B994245F8044B1444F8D1002360
:102F80004361037038BD00BF5C1900200A4B1B89E8
:102F9000B3F5FF7F4FEA930006D25A089B1A9BB203
:102FA000984238BF18467047B3F5EE6F01D8FF223C
:102FB000F4E740F27263F3E75C1900202DE9F8436F
:102FC0004B7880460C4602F0040602F0FB07D3B1B2
:102FD000DFB12F4BD4F804901D89BFBB0123637070
:102FE000AD08A761E76104F120034A46211D04F101
:102FF000280023F8025B984241F8042B2A44F8D1B8
:103000000023636101E0002FE3D0002E4FF0FF03A7
:1030100018BF0226A370A3191B7D032B03D1022F17
:103020001CBF0136F6B2A31901221A7506F10C0273
:1030300004EB8606002324F812307268A370C8F8E7
:103040000020A8F804304046BDE8F883002114228F
:103050006170A01816F0E6FEB5F5FF7F0FD26B0881
:10306000ED1AADB209EB0502C4F804902584A26004
:103070006384C4F80C90A5842261E384C5E7B5F5A8
:10308000EE6F4FF0FF03EBD940F27265EAE700BF45
:103090005C1900202DE9F7431FFA82F81FFA81F925
:1030A00004460F4616462E214A46404617F08FFE2C
:1030B00005465CB12E230146CDF8009042462046DD
:1030C00017F037FE034B1C601F715E71284603B07A
:1030D000BDE8F08368190020024B5A791979186805
:1030E000FFF7D8BF68190020014B1868704700BF70
:1030F00068190020014B5879704700BF68190020FB
:103100002DE9F74305460C46F7200521904617F0B8
:103110005EFE064685B115F0030703D08F21192006
:10312000FEF7EEFFDFF83890C9F81050A9F8140048
:10313000A5B2BBB29D4204D806FB04F003B0BDE8C3
:10314000F083B9F814C0D9F81000CDF8008007FB5F
:103150000C000523F722314617F0EBFD0137E8E7B5
:103160007819002007B5CDE900230B460349024634
:10317000081D18F083F903B05DF804FB90190020D6
:1031800013B5064CCDE900230B46024604F10801B5
:1031900004F10C0018F072F902B010BD9019002073
:1031A000024B0146D3E9002017F0D3BF901900204D
:1031B000024B0146D3E9022017F0CBBF9019002043
:1031C000134B012200214FF0FF309A60C3F8001228
:1031D000C3F80803C3F80015C3F804259A60C3F8C0
:1031E0000803C3F80015C3F804250A490A4A03F581
:1031F00080334FF40040C3F80825C1F88000BFF3C6
:103200004F8FBFF36F8FC1F88001C3F80825704757
:1032100000F0004000E100E00000F63F8C4638235B
:1032200000B50CF8033B054B8E4607CBCEF80300E8
:10323000CCF80410CCF808205DF804FBAC19002091
:1032400070B5234DE96AAC6A0B7803F00303032BD6
:1032500004F1A8041AD16B8E2A8E0120034342F494
:1032600000626B8620746B6B2A869847E96A237E1E
:10327000013B18BF012323764B7833B1D4E92232C6
:10328000013342F10002C4E9223270BD002BEED0BE
:103290004B78002BEBD02A8E42F400622A86AA6B70
:1032A000002AF2D0FB2B08D895F83C3063B16B6B49
:1032B0000021BDE870402020184795F83D3043F0CC
:1032C000100385F83D3070BD01230370CFE700BFC8
:1032D000A019002010B5114C11F006FC10F0D8FE1A
:1032E000636B208E00219847237E4BB9236C94F8A2
:1032F0003D1094F83E009847002384F8443010BDF8
:1033000094E8070004F10C0383E807000449022253
:1033100004F119001AF072FCE8E700BFA0190020C0
:103320001D320000034B93F8443003B97047FFF798
:10333000D1BF00BFA0190020012923D838B51C4DEA
:10334000AB6C04469847D8B195F83D30C3B995F8B1
:10335000240010B11CB1002038BD012CFCD195F81F
:103360004C30DC06C3F300110ED50023AA6B92B1DA
:10337000C0B16A8E920715D5AB6DDB78022BEAD00F
:10338000012038BD012070472B6D1B78C3F300135B
:10339000C3F10103EAE7B5F85420002AE8D0002978
:1033A000EED0E5E7002BEBD16A8E002AD3D0E7E719
:1033B000A019002008B5094B93F84420022A07D130
:1033C000DA7A42F00102DA72BDE80840FFF782BF04
:1033D00040F23D212720FEF793FE00BFA0190020F8
:1033E000F8B5254CA66A236DE36296F8CB30054606
:1033F00006F1A80794F85C000BB10430C0B296F84F
:1034000071100DB9FF282ED011F0D2F897F82330A3
:103410001BB3206E11F05CFF94F82430216EE06A3B
:10342000003B18BF012384F88030D7E92223C4E988
:103430001E2310F0D9FD3DB996F8710010F00C0074
:1034400018BF282011F0AEFF96F87010002012F07F
:1034500011F8022384F84430F8BDE06A11F038FF17
:1034600010F016FEE7E796F870209142D0D011F0E8
:103470009FF897F82330CBE7A019002070B57F4C58
:10348000A56A82B095F8CB20002305F1A8068DF837
:10349000053094F85C300AB10433DBB210B9FF2B6D
:1034A00000F0B28095F87010FF2011F081F8B37D24
:1034B000032B00F2DE80DFE803F0021D807094F839
:1034C000C230ADF806306E48A5F860300CF048F810
:1034D000002840F0A180D4F8C4000DF105020DF1E0
:1034E000060117F09FFCA06520B196F86130002B13
:1034F00000F0A9806348A065F37DDB0003F00802BB
:10350000037803F0F3031343327E920002F00402C7
:10351000134303F0EF0203F00303032B027002D105
:10352000C378022B12D0D4F8C40017F0FEFC48B9BF
:10353000A06D027802F00303032B07D00CF036F8DD
:10354000002879D1A06D027842F01002027096F83E
:10355000223013B14378002B43D111F0B9FE10F0A3
:1035600097FDA66D0DF074F820B1337803F00303D6
:10357000032B64D095F87110012011F07BFFA36D2F
:10358000414A18889978A4F84C00012384F8C8307F
:10359000917084F8443002B070BD39480BF0E0FF00
:1035A000002861D0A06DC3781B2BA5D1012105F1A6
:1035B000100011F033F8A06D9EE7B5F86030D4F834
:1035C000C400ADF806300DF105020DF1060117F04B
:1035D00029FCA06500288FD140F2D6212720FEF7D4
:1035E0008FFD206E11F074FE94F82410206ED6E941
:1035F0002023B1FA81F67609A16D84F88060C4E9D0
:103600001E2310F0F1FCACE795F8713095F87010BE
:103610008B427FF449AF4AE7638EA16D626B43F042
:103620008003802063869047A06D01217174C37868
:103630001B2B7FF461AFBAE7A06D027886E701200B
:1036400012F0D6FE96E79DF805302BB1BDF80610B6
:103650001AF08FFAA06D4FE703808370A06D0121EF
:103660001AF071F9A06DF1E740F2DF212720FEF793
:1036700047FD4FF43B712720FEF742FDA0190020C3
:10368000F8190020301A0020EC1900202DE9F04133
:10369000434C94F84420A56A012A82B006460F469E
:1036A00005F1A8055FFA82F874D12B7C6BB1638EAB
:1036B000002143F0040363862974636B0420984758
:1036C00094F824300BB185F81280A16D0A7802F0CD
:1036D0000302032A36D04B78EBB10223AB7595F881
:1036E0002330F3B1A36A93F87110D5E92223C4E91A
:1036F0001E2394F8243094F85C20003B18BF01236B
:10370000013984F8803007293FD8DFE801F03B1306
:103710003E113E3E3E380123AB7595F82330002B19
:10372000E0D106B907BB02B0BDE8F041FFF7D2BD5A
:103730004FF00308002300931A494346012010F07C
:10374000DBFBEEE7AB7D63B9638E43F00203638678
:103750000220636B9847A16D0B7803F00303032BE2
:10376000B9D10323AB75BAE731463046FFF7E4FD24
:103770000028D8D102B0BDE8F041FFF731BE4FF0CC
:103780000208D7E74FF00008D4E740F2B93106202D
:10379000FEF7B6FC40F25C412720FEF7B1FC00BF0B
:1037A000A0190020081A002070B50C4B0C4C0D4AD3
:1037B0001A6094F8443063B906460D4603F0FF02E0
:1037C000012104F1900022761AF0BDF826652566E5
:1037D00070BDDF212720FEF793FC00BF60000020B2
:1037E000A01900209C400000044A92F8443003F0E5
:1037F000FF000BB9107670470C207047A01900200D
:10380000024B012283F83C20704700BFA019002022
:103810002DE9F043BA4C85B002AD85E8030094F879
:1038200044100C98002940F0D481002A00F0D18186
:10383000002B00F0CE81002800F0CB8101F0FF06C4
:10384000206495E80300A36404F1240383E80300E3
:10385000A56A626384F83C6084F83D6084F8C960BE
:1038600084F83E6084F8C8606686268610F036FFCD
:1038700010F00EFC95F9740011F050F805F1A8074E
:10388000A86A11F009FD286A11F04EF897F8330084
:1038900011F054F894F82430002B69D0042016F06D
:1038A00077FBEA6941F64B539A4294BF4D2096202C
:1038B00010F034FEA36A93F8D832002B40F01C813C
:1038C00095F87110012011F021FA002863D08D4B7A
:1038D000186811F0E7FC6B69C4F8C430AB69C4F830
:1038E000CC3095F87F301BB9A96F002940F0C38018
:1038F000D7F89000D7F89410D7F89820D7F89C30D4
:10390000DFF804C2ACE80F00D7F8A030C4F881306B
:10391000D7F8A430CCF80D30A36A94F8241093F8AB
:10392000C520A2F12600002938D1012803D993F837
:10393000C600262838D193F81A2393F87080002AFD
:1039400040D0B8F1080F3DD0B8F1040F00F0268147
:10395000082A00F02381042A00F02081B8F1010F29
:1039600030D0012A14BF4FF002084FF0010829E0BF
:10397000032016F00DFBEA6941F64B539A4294BFBF
:103980004D20962010F0CAFD95F87010002011F01F
:10399000BDF900289BD105B0BDE8F08301287BD993
:1039A00093F8C600262877D0213A012A40F2CC802D
:1039B000242800F0E78093F87080B8F1040F08BF66
:1039C0004FF0080805F13809414648461AF0D4F985
:1039D000414619F0A1FBB5F8443095F87110024644
:1039E000934228BF1346484684F8C2301AF08AF939
:1039F00095F8711097F82390B5F84C80082908BF06
:103A0000042119F089FBB9F1000F01D1043080B213
:103A1000404528BF40465FFA80F884F8D0800CF01B
:103A200017FE20B1B8F12B0F38BF4FF02B0894F8D8
:103A3000241084F85C80002957D197F82230002B9D
:103A40003AD0012384F88030D7E92023C4E91E232B
:103A500095F87030E86941F64B52013B904294BFB3
:103A600004200020072B00F29C80DFE803F01E9F5B
:103A70009A1D9A9A9AA1B7F84E20BB8A93427FF476
:103A800037AFB5F87C201344A7F84E3095F87E0088
:103A9000012212F091FC2BE793F8B62393F8708083
:103AA000002A7FF44EAF8DE7032100220B460092DF
:103AB0001549FB2210F020FA0120FFF7DFFC134B21
:103AC000D3F8503523F00803032B00F08780002340
:103AD000C4E90033A3602A88B98A97F8333061803B
:103AE0002280237105B0BDE8F08397F823307BB9BD
:103AF0000120FFF775FCE2E710F0DEFDE0E600BF15
:103B0000A019002060000020081A002000100040CA
:103B1000D7E9220195F871300122013BC4E91E0169
:103B200084F88020072B3CD8DFE803F005443B04F1
:103B30003B3B3B4603260021009133462A4942463F
:103B4000012010F0D9F9D3E724281BD000293FF435
:103B500032AF93F86E2193F8708050071ED412F0A4
:103B600001032BD193077FF52DAFB8F1080F3FF478
:103B700029AFB8F1040F11D0B8F1010F18BF4FF001
:103B800002081FE700293FF416AF93F8691093F875
:103B90006E2193F870800A405107E0D54FF0080875
:103BA00010E740F2B9310620FEF7AAFA01217CE7BE
:103BB00002217AE70126BEE70226BCE7B8F1080F2A
:103BC0003FF400AFB8F1040F14BF98464FF0080857
:103BD000F8E64FF4A8712720FEF792FA4FF4FD7132
:103BE0002720FEF78DFA00BF081A002010B5184CE8
:103BF00094F84430EBB194F824308BB194F844300D
:103C0000022B20D1A36AD3F8F00211F099FBA16A2C
:103C100091F87F3003F0FF020BB98B6F63B910BDD1
:103C200094F84430012BF2D040F20F212720FEF708
:103C300067FAFFF74FFBEAE791F87E00BDE8104016
:103C4000114612F0B9BB40F213212720FEF758FAB3
:103C5000A0190020FFF73EBB014B1876704700BF4C
:103C6000A0190020014B93F8C8007047A01900204C
:103C7000024B188EC0F38020704700BFA0190020AF
:103C8000014B93F8C9007047A01900202DE9F041BD
:103C90001E4FBC6A820782B005460E4604F1A80496
:103CA00011D4EB070CD5D4E92232217E013342F145
:103CB00000020129C4E922320CBF0023012323762C
:103CC00002B0BDE8F081BB6BDBB1B7F85420F96AF4
:103CD0001846033291F8018016F02CF80DF102021B
:103CE00001A9F862D7F8CC0017F0D4F9019817F0C1
:103CF000BBF9012230604146D7F8CC0017F060F9DB
:103D0000CFE740F24D412720FEF7FAF9A019002035
:103D10002DE9F047B24C86B00023CDE904338DF88D
:103D20000F3094F84430A56A022B06460F4605F181
:103D3000A8055FFA83F840F0A281238E13F04001BA
:103D400006D1636B40209847238E43F040032386BF
:103D5000002E5AD095F82330002B40F01881D4F86B
:103D60002CA09AF8011089B2A4F85410002940F050
:103D700025810023A3639AF80000238EE97DC0F318
:103D8000800243F480739142238600F0CC80A26AC3
:103D900094F8241002F1A80999F81620EAB1022A31
:103DA00000F05381002389F8163021B199F81220D0
:103DB000002A40F03F8199F81130002B40F0168125
:103DC00099F81730D4F82CA0012B0CBF0023012345
:103DD00089F817309AF80000238E43F48062228617
:103DE0002A7EC0F3C0039A424FF0000900F0A2807F
:103DF0000CF02EFCC0B19AF8003003F00303032B43
:103E000012D1012012F0F4FA0EE095F82320002AD6
:103E100040F0B98043F40073238694F8C93001332D
:103E200084F8C9304FF0000995F822305BB394F85C
:103E30002430A26AB3FA83F3D06992F870105B0958
:103E400084F8803041F64B53984294BF0420002000
:103E5000D5E920230139C4E91E23072900F2E280B5
:103E6000DFE811F08E000800E0008B00E000E000C9
:103E7000E0000A004FF00108002200925949434631
:103E8000FB2210F039F847B994F8C9100120FFF768
:103E900053FA0746002800F0998011F059FB0127DA
:103EA0009DF80F307BBBB9F1000F08D094F8243097
:103EB000002B59D1B4F809300133A4F809303EB3CE
:103EC000B4F8053000220133A4F8053084F8C92085
:103ED00045480CF0F1FE049840B117F0C5F8A16A0E
:103EE000002343720822013019F076FE059B33B19E
:103EF000A16A00221A720598102219F06DFE6FB99E
:103F000006B0BDE8F08705A90220FFF7BFFECAE7AB
:103F1000B4F807300133A4F80730D9E7FFF7DAF92E
:103F200006B0BDE8F0872A7EC0F3C0039A42B146CE
:103F30007FF45EAF0CF08CFB00284AD0D4F82CA0A4
:103F40009AF8003003F00303013B012B41D89AF8A3
:103F5000012094F8D0309A423BD994F83D3043F098
:103F6000100384F83D3043E7B4F80530B4F8071087
:103F7000AA8A0B431343A2D09CE74FF003087BE7C8
:103F80004FF0000878E710F0EDF8238E42E710F0CC
:103F9000AFF810F091F8D4F82CA09AF8011000288E
:103FA0007FF4E1AE002942D09AF800302A7EC3F3B4
:103FB000C0039A425DD089B2A4F85410D4F8CC0062
:103FC00016F0D4FFD4F82CA0A063D4E6FFF756FA7D
:103FD00066E70DF10F00FFF733F9D4F82CA007E7DF
:103FE000A0190020081A0020C41900204FF0000A70
:103FF00089F811A00BF0C4FA00284AD0638E43F070
:10400000080363865146636B08209847D9F88030CF
:104010000133C9F88030D9F8843043F10003C9F87E
:104020008430CDE640F2B9310620FEF769F8A4F8F5
:1040300054109EE689F812301946638E43F010033F
:1040400063861020636B9847B5E6D4F8C40004A9D2
:1040500016F00BFFC0B1D9F8803094F8241001336A
:10406000C9F88030D9F8843043F10003C9F88430AE
:1040700098E6012384F83E30FFF72CF940E740F240
:10408000CF412720FEF73CF840F2CB312720FEF746
:1040900037F840F2E2312720FEF732F8B53300005E
:1040A000113D00008D360000253300000B4606222E
:1040B00003F8032BB0F809C0C27AA1F803C09A70C4
:1040C000704700BF06230B70D0F80F301A88A1F894
:1040D000032093F8CD304B71024B5B6800229A6746
:1040E000704700BFB42200200B46172203F8032BB1
:1040F000D0F809C0D0F80D20C1F803C05A6070474D
:1041000010B5392301F8033B00F109032930D3F836
:1041100000E0D3F804C09A68DC68CC6010338342B6
:10412000C1F800E0C1F804C08A6001F11001EED1CD
:104130001B880B8010BD00BF124B134A33F811309F
:1041400003F2E733A2FB0323082900F1FF324FEA11
:1041500093134FEAC2120FD0042907D0022914BFCB
:10416000F0216021134401FB0030704740F2BE2172
:10417000134401FB003070474FF4D261134401FB3C
:10418000003070479CB50400D34D621030B5D9287B
:10419000844628BF4FF0D90C0CF1300CBDF80C4010
:1041A0001FFA8CFCBCF1FF0F28BF4FF0FF0C04F08E
:1041B000020514F00104864638D1002D64D001F5C3
:1041C000A570082A00F01481042A00F0C580022A94
:1041D00014BF4FF414714FF49671014412F00C0F98
:1041E00040D1082A00F00C81042A00F00C81022A38
:1041F00014BF4FF4B070B4209C31014401F1980019
:10420000B4BB002B00F0AC80082A00F03C81042AEB
:1042100000F09981022A40F6480308BF4FF48563F5
:10422000BEF1D90F184400F2428130BD01F5A570EE
:10423000002DC6D1002B42D1082A00F01C81042A8F
:1042400000F09C81022A00F0B7810CF1050C1FFAE6
:104250008CFC282108250CFB051C12F00C0F0CEB24
:104260000001BED001F6144101F19800002CC8D025
:10427000082A00F0C180042A00F0C880022A14BF76
:10428000C0236423184430BD01F5A5702BB3082A60
:1042900000F04381042A00F07981022A40F64803A5
:1042A00008BF4FF48563BEF1D90F1844BDD9AEF1F4
:1042B000D903C5499BB2F63381FB0341FEE0082ACE
:1042C00000F0D680042A00F03B81022A40F6480123
:1042D00014BF8C464FF4856CBFE7082A00F01181AB
:1042E000042A00F05B81022A00F004810CF1050C25
:1042F0001FFA8CFC282408230CFB034CBEF1D90FB9
:10430000604492D9B149AEF1D90E1FFA8EFEA1FBDD
:104310000E31AEEB010301EB5301042AC1F3C711C7
:1043200046D1C1EB4113C1EBC303AEEB030341F232
:1043300008329BB202FB0100002B3FF476AF03F181
:10434000080292B205324FF4BF74102100F5A57334
:1043500002FB0142D01830BD40F2CE5101443DE78E
:104360007346F12B28BFF123082A53D0042A00F00A
:10437000FE80022A00F01A8113339BB228214FF0ED
:10438000080C03FB0C13BEF1D90F18447FF64DAF98
:104390008E49AEF1D90E1FFA8EFEA1FB0E31AEEBA7
:1043A000010301EB5301042AC1F3C71100F092800D
:1043B000C1EB4113C1EBC303022AAEEB030E40F67F
:1043C000921540F272541FFA8EF318BF2C4604FB6C
:1043D00001000CBF18242824002B3FF426AF08331B
:1043E000022A9BB203F105020CBF04210821ADE7AC
:1043F00041F2D0210144F1E64FF4CA63184442E788
:104400004FF43560F8E640F2EE30F5E640F2AE23C8
:10441000184438E713339BB200EB8310BEF1D90F79
:1044200000F5C8707FF601AF684AAEF1D90E1FFAE9
:104430008EFEA2FB0E32AEEB020302EB5302C2F37E
:10444000C712C2EB4213C2EBC303AEEB030E44F23E
:10445000DA311FFA8EF301FB0200002B3FF4E5AEC8
:1044600003F1080292B205324FF4C87440216DE79F
:1044700044F2902CF1E60CF1050C1FFA8CFC4FF481
:10448000C8714025E7E601F58640BEF1D90F00F17D
:1044900028007FF6CAAEAEF1D9024B4B92B2F6328B
:1044A00083FB02131344DB1144F2DA310FE0AEF167
:1044B000D901454B89B2F63183FB01430B4440F6E9
:1044C000921440F27251DB11022A18BF214601FBFF
:1044D000030030BDC1EB4113C1EBC303AEEB030ED0
:1044E00041F208321FFA8EF302FB0100002B7FF429
:1044F00026AF30BD0CF1050C1FFA8CFC18240423E8
:10450000FAE60CF1050C1FFA8CFC00EB8C13BEF1E3
:10451000D90F03F5C87087D887E644F2DA32BEF1C6
:10452000D90F01EB02007FF680AEAEF1D901264B28
:1045300089B2F63183FB01430B44DB111146C6E718
:1045400041F2BE1C89E601F59250BEF1D90F00F18F
:1045500016007FF66AAEAEF1D9021B4B92B2F6326C
:1045600083FB02131344DB1141F20831AFE713332D
:104570009BB24FF4BF714FF0100C02E70CF1050C29
:104580001FFA8CFC4FF4BF71102564E641F208322B
:10459000BEF1D90F01EB0200C7D830BD0CF1050CFC
:1045A0001FFA8CFC4FF4BF741023A5E613339BB2A3
:1045B00018214FF0040CE4E60CF1050C1FFA8CFCFA
:1045C0001821042547E600BFC9F9A98491F35309CE
:1045D0002DE9F043314ED6F800C0DCF80F300B6205
:1045E0004FF000089CF8153062F3070862F30F28BB
:1045F00015469CF814201B0443EA02239CF8132060
:1046000013438B6283B00746BCF819000C4618F0C0
:10461000E2FD3368E06181464946987D18F0E8FD87
:10462000336820864946B3F8170018F0FFFD336859
:10463000E062B3F81B20A284B3F81D20E28493F853
:10464000242002F01F0284F8D920D3F81F00009024
:1046500093F823308DF80430694604F1CD0018F04A
:104660004DFE336893F82430A4F870805B0984F819
:10467000D932FF2315F00C0F14BF0121002104F1E2
:10468000380084F872300BF03DFF97F91410204683
:1046900018F08AFD03B0BDE8F08300BF741A002053
:1046A000F8B544888C46054614F00401134618BF3B
:1046B00005F177016246C07F0BF086FAC207044617
:1046C00006D4A30712D484F00400C0F38000F8BD20
:1046D000012385F86830E87F0BF04EFB0368C5F8CE
:1046E00069308388A5F86D30A307ECD5084E012703
:1046F000306885F8767005F1770118F0E2FE3068D1
:10470000394618F0F2FE84F00400C0F38000F8BDD2
:10471000741A00200B46132270B503F8032B0C46C5
:1047200000F109022930166855689168D2F80CC06A
:10473000C3F80CC0103282421E605D60996003F1C4
:104740001003F0D112781A70A6880125A5712946A8
:104750003046FEF7E3FA48B1E27842B100880AF049
:10476000BFFE29463046FEF7EFFA20B970BDBDE81E
:1047700070401AF0AFB840F242212D20FDF7C0FC86
:104780001323F7B50B700023CB7083691A888A80D6
:10479000054601228A71D8690C4618F009FDAB69FB
:1047A00060839A8CA283DA8CE28393F8D92284F80E
:1047B0002020FF2284F821206A69128962845A7AB3
:1047C000012A04F10E012ED1DA7B02F0C002402A48
:1047D00029D1D3F80A20C4F80E20DB898B80154B31
:1047E0005868436D6361B0F858302383AF69BE7871
:1047F000E67100230622694654300093ADF8043078
:1048000015F032FA10B146F00206E671D7F803301F
:10481000A360B7F80730A381A86940B103B0BDE831
:10482000F0401AF057B80023C4F80E30D6E703B0B2
:10483000F0BD00BFB422002070B504460D46C86923
:10484000164618F0B5FCAB8CA4F8A630EB8CA4F897
:10485000A830A4F8A400A37F95F8D92284F8AA2050
:104860001BB194F86830012B24D00022C4F89820A2
:10487000A4F89C201F4B1B681A78C2F3801284F89E
:104880009120082ED3F8032023D0C4F89E20B3F83B
:104890000730A4F8A23004F1920204F191013046ED
:1048A0000BF034F908B394F8913043F0020384F824
:1048B000913070BD94F86E3003F0C003402BD4D11A
:1048C000D4F86920B4F86D30C4F89820A4F89C306E
:1048D000D0E7C4F89220B3F80710A4F8961000238C
:1048E000C4F89E30A4F8A23070BD40F64A412D2095
:1048F000FDF706FC741A00200B46162203F8032B62
:10490000D0F80920C1F80320CA7890F80DC083F8C8
:1049100004C01AB130F8AC3C1B0700D5704710B585
:10492000B1F8054001212046FEF7F8F938B10088BA
:104930000AF0D6FD01212046FEF706FA00B910BDA7
:1049400040F286212D20FDF7DBFB00BF2DE9F0436F
:104950008A4D8B4AAB6A87B05B680292894A0392A0
:104960000026894A6E71044680F8816002A8CDE96C
:1049700004232E82AE60AE7110F094FC0FF0AEFEF8
:1049800010F05EFD0FF02CFA80480FF0CDFF80484C
:1049900010F082FC04F13007304615F0F9FA384681
:1049A00001F0BCFB384601F0BFFB0FF0C7FF2179D7
:1049B00025200FF0FDFD94F914000FF0AFFF2179D1
:1049C000304610F0A3F9E86028B901232B710020CC
:1049D00007B0BDE8F08304F15001E06C16F0BDFCB7
:1049E00004F158010646E06C16F0DEFC07463EB1C5
:1049F00094F82480B8F1000F02D04FF0010903E0D1
:104A0000002F5CD1B846B946A37F13B96388590714
:104A10001BD5D4E918236FF000418B4208BFB2F1D7
:104A2000FF3F54D01AF0B2FCD4E91823904271EB46
:104A300003034CD3414601222046FFF731FE0028F4
:104A40004FD1B9F1000F40F09480002E08BF3E46D0
:104A500094F88330002B71D1002E6FD12868033079
:104A60000BF0A0F86388A874DB07B0D50023266A92
:104A7000CDE900330122FF238DF8062085F8203090
:104A800006F10A076846FEF781F900289FD1009CCD
:104A9000A642F7D0727A607A3B4604F10A0118F018
:104AA00013FA0028EED0A37885F82030D4F803203C
:104AB000C5F82120374BB4F807209A8087E794F88F
:104AC0002580B8F1000918BF4FF001099CE7B9F142
:104AD000000FBAD0012211462046FFF7E1FD002861
:104AE00047D00BF00DF880461AF050FC4FEA4813FF
:104AF000B3EB08034FEAD86262F10002520242EAC5
:104B0000D3525B0213EB080342F1000C4FEA8C1EF8
:104B10009A014EEA936ED31A6EEB0C0213EB080364
:104B200042F100021B1842EB0101C4E91831002ECA
:104B300008BF3E4694F88330002B8DD06388DA0698
:104B40008CD4666CC6F30B260BF088FDC0F30B0308
:104B50009E42F9D094F8463084F84500C0F3032112
:104B600023F00F030B43002284F8463084F883209F
:104B700074E740F614212D20FDF7C2FA741A0020C4
:104B800095520000D14E00009D4D0000D6BE898E8A
:104B900055555500951A00202DE9F047032984B09A
:104BA0000446164640D090F8803023B100252846B0
:104BB00004B0BDE8F087052967D0464F97F812800A
:104BC0004FF00109B8F1000F39D13378082B70D0BC
:104BD000396894F86F2011F8030B04F17003C0F3E7
:104BE000801018F071F93968054611F8030BC0F30D
:104BF000801018F0A3F982460BF0D0F80746002881
:104C000030D13378082B4FD0002D34D0638859072A
:104C1000CDD4002FCAD1B8F1000F53D1637D0BB1B1
:104C20004B45C3D10125C2E743889A07BED5294F1A
:104C300097F812804FF00209B8F1000FC5D018F0B4
:104C400087F90828307034D002AA0DF107010AF064
:104C50005DFF002838D09DF8070002A919F0FDFC7F
:104C60008046B2E7BAF1080F13D13378082B1BD076
:104C70000027002DCAD1E57FED1A6388B5FA85F5C6
:104C800059074FEA551592D4C3E74388DB0794D4FC
:104C90008CE750460AF03EFE33780028E6D1082B18
:104CA00084D0002DB2D1E6E7638858073FF57FAF87
:104CB000B1E7396811F8030BC0F3801019F0CDFC8F
:104CC000804685E7454672E740F63D712D20FDF7A9
:104CD00017FA00BF741A002038B52E4DB0F84830CE
:104CE000AA7C01330446A0F84830B2B900232B71E6
:104CF00094F881305BB9637C1BB1B4F848209A42C8
:104D000012D220460021BDE8384002F08FBD204677
:104D10000121BDE8384002F089BD10F091FB0FF091
:104D20005FF80023AB74E1E70121204602F07EFD2D
:104D30006388DB070FD5236A1D880AF035FA68B946
:104D4000637C217884F8B8104322A4F8B95084F821
:104D5000B720A3B111E00AF027FA00B138BD637C97
:104D6000207884F8B8004FF0FF32432184F8B9204E
:104D700084F8BA2084F8B7100BB194F8483084F85E
:104D8000BB3004F1AE000449BDE83840022218F0FF
:104D900023BF00BF741A0020F948000060B951B168
:104DA000074A1379916AD06A096903F18043043B89
:104DB00051F8233018477047014BD86AFFF78CBF72
:104DC000741A00202DE9F04182B008230DF107028A
:104DD000052104468DF80730FFF7DEFE00286BD072
:104DE0006279216A2046FFF7F3FB216A002384F8E9
:104DF0008D300888A4F88E004FF6FF73FF2284F8E8
:104E0000AB20A4F8AC309DF807202046FFF714FD36
:104E1000236A2D4A19881568A4F8C51093F8CD2087
:104E200084F8C72025B1184601222146A847236AE5
:104E3000264D2868D0F80320C3F80320B0F80720D7
:104E4000A3F807200678D4F820800027C6F3801640
:104E500088F802600821078018F003FB28683946AB
:104E600018F07DFC28683A464FF0030118F07EFCEC
:104E70003A460623286804F1690118F04AFC94F8C0
:104E80006810286818F024FB2868314618F02DFBBC
:104E900006230122286808F1030118F03AFC617921
:104EA000FF200FF085FB286810F012FA092301207B
:104EB0002B7102B0BDE8F0812046FFF70DFF012005
:104EC00002B0BDE8F08100BF6C000020741A002021
:104ED000F0B54D4C2379022B85B003D02379032BF9
:104EE00040F08680E36A1D6A0DB195F8755088B967
:104EF000A37C1BB110F0A4FA0EF072FFE06A02F07E
:104F0000BBFA40B30FF0F0FDA36A9B6805B0BDE8A3
:104F1000F0401847216893F8682011F8096B69334D
:104F2000F00917F0D1FF0028E2D006F00F06052E99
:104F3000206827D0294618F001FB0028D8D0237913
:104F4000E06A022B0DD02379032B0AD040F6C5412D
:104F50002D20FDF7D5F8E06A05B0BDE8F040FFF779
:104F6000BBBE2379A26A03F180435269023B3146FA
:104F700052F823309847A37C002B3ED10028BDD1A6
:104F800005B0F0BD90F8243003F01F03102BD1D9E9
:104F9000E76AFB7C002BCDD008230DF10F023146D0
:104FA00038468DF80F30FFF7F7FD0028A0D097F8AE
:104FB000E130002B9CD1216807F1E202CB1C2331A8
:104FC0001E685D689868D3F80CC0C2F80CC0103336
:104FD0008B4216605560906002F11002F0D11B8880
:104FE00013800A49022207F1D90018F0F5FD7FE786
:104FF00040F6EC412D20FDF783F8019010F020FAE7
:105000000EF0EEFE0198B9E7741A0020014100008D
:105010002DE9F04104460E46002940F08E80704D87
:10502000286894F87670002303806388103B0D2B6A
:1050300000F2C780DFE803F07CC5771EC507C5C551
:10504000C5C5C5C5C507012118F00BFA2868037846
:1050500023F0200343F020030370002F00F094801E
:1050600004F1770118F02DFA2868012118F03DFAB3
:10507000286809E0002118F0F4F92868037823F083
:10508000200343F02003037004F1690118F00BFAC8
:1050900094F86810286818F01BFA638823F0080356
:1050A0009BB2152B05D094F85420216D286818F078
:1050B00026FA286810F00CF904232B71F6B16388E6
:1050C000102B6CD004F130084046EF6801F0BEF8B8
:1050D0000646404601F096F8013E301A61882822C3
:1050E000C0B201F0F3F863881B0707445CD422794F
:1050F000394600200FF056FF00286CD06388103B23
:105100000D2B63D8DFE803F00D62070762076262C8
:1051100062626262620721790120BDE8F04110F00D
:10512000A9B9BDE8F081062118F09BF92868ABE722
:10513000022118F096F92868A6E700F130073846F2
:1051400001F060F8A8B963881A0735D5384601F030
:105150007DF80546384601F055F8281AC0B2204DB2
:1051600001F0AEF8AB6803443846AB6000F0D6FF00
:1051700000E01B4D384600F0D7FF0FF0DFFB217930
:1051800025200FF015FA4BE704F1700118F099F99A
:10519000286894F86F1018F0A8F9286874E7217946
:1051A00000200FF0D1FBA9E7AB681F4401F060F8C5
:1051B0003844C4F818019AE72046BDE8F041FFF7EB
:1051C0008BBD40F249612D20FCF79AFF40F67551E6
:1051D0002D20FCF795FF40F661512D20FCF790FF44
:1051E000741A002038B54388102B1FD0124DAB7CA9
:1051F000044663B9286810F06BF8608810F004006A
:105200000BD0002010F0CEF802232B7138BD0EF029
:10521000C9FD402010F008F9ECE7217910F02AF9D7
:10522000002010F0BFF802232B7138BDBDE83840D4
:105230000121FFF7EDBE00BF741A00200121FFF726
:10524000E7BE00BF024B0121D86AFFF7E1BE00BFF5
:10525000741A002070B50C4E337963B90378FF2BB4
:10526000054608D0FFF772FB044610B93379012BCD
:1052700004D1204670BD0C24204670BD014628464E
:10528000FFF7C6FE204670BD741A00200121FFF70B
:10529000BFBE00BF10B5164CA37CF3B9E06A02F0A4
:1052A000EBF8A8B1E06A438803F018038BB12379C7
:1052B000022B02D02379032B14D12379A26A03F1A4
:1052C0008043D268023BBDE8104052F823301847B3
:1052D000E06ABDE81040FFF7FFBC10F0B1F80EF037
:1052E0007FFDDBE740F6F4312D20FCF709FF00BF1E
:1052F000741A002038B51D4C2379002B35D0237942
:10530000E56A022B19D02379032B16D014F082FE04
:1053100094F83030F3B1284602F0AEF8D0B1E46A28
:1053200063881B071BD404F1300000F06BFFB0B999
:105330002046BDE83840FFF7CFBCA37C002BE5D06A
:1053400010F07EF80EF04CFD14F064FE94F830304E
:10535000002BE0D12846BDE83840FFF7BDBC204611
:105360000121BDE83840FFF753BE38BD741A002054
:1053700030B50B6883B0002B51D00C46054618465B
:1053800000F064FF94F810E0627CBEF1040F3BD0A3
:10539000254B264933F81E30042A03F2E73323D085
:1053A000A1FB03134FEA931CBEF1080F00F1FF337A
:1053B0004FEAC31325D0BEF1020F14BFF0216021C4
:1053C000634401FB0031A388009328460023FEF7C5
:1053D000DDFED4E90223D730824273F100032CBFF3
:1053E0000120002003B030BDA1FB03234FEA931C32
:1053F000BEF1080F00F1FF334FF008024FEAC3136C
:10540000D9D14FF4D261DBE7431E042A4FEAC3131C
:105410004FF02C0CF5D108224FF4D261D0E740F2C6
:10542000FD312D20FCF76CFE9CB50400D34D6210BD
:105430002DE9F04F90F8803087B0002B3DD14588A2
:1054400015F00105044638D0774E03F0FF0AB37C0F
:10545000002B40F0C680316811F8030BC0F38010B8
:1054600019F0FBF84FF008098346316894F86F2073
:1054700011F8030B04F17003C0F3801017F024FD42
:105480003168074611F8030BC0F3801017F056FD82
:1054900080460AF083FC019018B1B8F1080F40F083
:1054A0008680B9F1080F00F0AF80638857B95A07BA
:1054B00040F18A80E37F4B4506D00025284607B09F
:1054C000BDE8F08F5B077FD53168584B11F8030BAF
:1054D00096F82020C0F3801017F0F6FC074600284D
:1054E000EBD1216A33681A7891F8CD3003EA521370
:1054F00003F0010381F8CD3001222046FFF768F860
:10550000216A84F88D70FF23088884F8AB304FF649
:10551000FF73A4F8AC304A46A4F88E002046FFF78B
:105520008BF94349022204F1840018F055FB236AE9
:1055300040491A88A4F8C52093F8CD3084F8C730C4
:10554000022204F1BC0018F047FB236A1F8809F00F
:105550002BFE88B9637C2278A4F8B97084F8B70070
:1055600084F8B820002B56D1334984F8BB3002228E
:1055700004F1AE0018F030FB304B1B680022327192
:1055800013B1206A214698473368226AD3F8031082
:10559000C2F80310B3F80710A2F807101B78226AAC
:1055A000C3F380132846937007B0BDE8F08F4046E0
:1055B0000AF0B0F9019B00287FF473AFB9F1080F2E
:1055C0003FF47BAF9A4670E7BAF1000F7FF475AFF6
:1055D000BBF1000F7FF478AF637D012B3FF66DAF19
:1055E00072E717F0B5FC082881463FF434AF04AAEF
:1055F0000DF10F010AF08AFA80B19DF80F0004A99D
:1056000019F02BF8834630E763885907E0D5002F5F
:105610003FF453AF58E794F84830A5E740F63D71A2
:105620002D20FCF76DFD00BF741A0020951A002094
:1056300015470000AD400000F94800006C00002054
:105640002DE9F047032984B00CD0052946D1684BD9
:105650001C681CB1A04780F00104E4B2204604B0ED
:10566000BDE8F08743880546980737D5614EB37C7F
:10567000002B38D1316811F8030BC0F3801018F0FB
:10568000ECFF4FF008088146316895F86F2011F85B
:10569000030B05F17003C0F3801017F015FC31689F
:1056A000074611F8030BC0F3801017F047FC824641
:1056B0000AF074FB044638B1BAF1080F04D0504622
:1056C0000AF028F9002875D0B8F1080F41D000245D
:1056D0006B88DFB95A0766D4002C3DD001242046E0
:1056E00004B0BDE8F08717F033FC08288046C1D02D
:1056F00002AA0DF107010AF009FA00286ED09DF800
:10570000070002A918F0A9FF8146BDE75B07E3D5B2
:105710002B7C4BBB306800240480042117F0A1FED1
:10572000306805F1690117F0BEFE95F86810306821
:1057300017F0CEFE95F85C20A96D306817F0EEFEEC
:105740003068052333710FF0C3FD204604B0BDE877
:10575000F0876B8859072AD4B9F1000FD8D16B7D37
:1057600013F0FD0FBAD1D3E795F8D030002BD1D18B
:105770002B7885F8D130B8F1080F1FD005F1D3028E
:1057800005F1D20140460AF0C1F960B395F8D23074
:1057900043F0020385F8D2301749022205F1C80010
:1057A00018F01AFAB6E7EB7F434597D1B0E7002F20
:1057B00094D0ADE7B8F1080F8AD14FE731680B46B6
:1057C00013F8032BC2F3801285F8D220D1F80320FE
:1057D000C5F8D3209B88A5F8D730DDE740F63D71AA
:1057E0002D20FCF78DFC40F6BA712D20FCF788FCCB
:1057F00068000020741A0020E940000008B590F805
:105800008C3043B990F8C4302BB990F8B63003F01F
:10581000FF0013B908BD012008BD09F0C5FC80F0E8
:105820000100C0B208BD00BF10B50948037913B12B
:105830000C24204610BD03F0FF042422214604302E
:1058400014F0F0FA0FF0FCFD0EF0CAFA204610BD7D
:10585000741A002010B50E4C0023237123792060A8
:1058600023B140F21E312D20FCF74AFC03F0FF016A
:105870002422201D14F0D6FA0FF0E2FD0EF0B0FA4B
:10588000A36A03B110BD40F221312D20FCF738FC92
:10589000741A002030B54FF4AC7285B004460D4642
:1058A000002114F0BFFA42F21073FF211322E384A7
:1058B00021706280FDF73EFB00220146E0646846ED
:1058C000FDF77CFBE06C0022012115F029FDE16C65
:1058D00004226846FDF772FB0022E06C114615F0C9
:1058E0001FFD04F13000257500F0F6FB02A80AF058
:1058F000A1FB30B102A904F1360017F0FFFC05B09E
:1059000030BD40F23A312D20FCF7FAFBFF23C86C82
:105910000B7015F0D2BC00BF014B024A9A6270476F
:10592000741A0020C0600000054A0649064B07486B
:1059300010B4074C1460074A10BC08601A60704726
:10594000680000206C00002064000020B577000093
:1059500031540000C54D00000078FF3818BF012009
:10596000704700BF70B5044682B030300D4600F07D
:105970006DFC6388D9062ED49A0794F804E01B4A7C
:105980001B4932F81E20844602F2E7324CBFB4F8BD
:105990005C00B4F85400A1FB02120CF1FF36BEF11A
:1059A000080F4FEA92124FEAC61611D0BEF1040F4B
:1059B00018D0BEF1020F14BFF021602100933244D1
:1059C00001FB0C212B466279FEF7E0FB02B070BDB3
:1059D0004FF4D261F2E72822194602B0BDE87040C8
:1059E00000F04ABC40F2BE21E8E700BF9CB50400CD
:1059F000D34D6210428812F0180F01D00120704779
:105A000010B586B000F1300403460094D3E90234A7
:105A1000B0F804C0ADF8042008466946CDE9023468
:105A2000ADF810C0FFF7A4FC06B010BDD0E902012C
:105A3000704700BF407D003818BF0120704700BF8D
:105A40002DE9F041857DAB1EDBB2012B04468CBFF6
:105A500000270127002D59D0B5F1020818BF4FF0DB
:105A60000108012B0BD943889A0665D40826022D1C
:105A700067D0637F002B56D10020BDE8F08100F194
:105A8000700190F86F0017F059FA63889B0606467C
:105A900005D40828EAD009F049FF0028E7D1E677C5
:105AA000A77784F868800AF02BF8054619F06EFC99
:105AB0006B015B1B4FEAD56C6CF1000C4FEA4C2C70
:105AC0004CEAD35C5B025B194CF1000E4FEA8E1678
:105AD0004FEA831C46EA9366BCEB030366EB0E0CAD
